:100000000C9409010C9480030C94A6030C94BE0A72
:100010000C940A0A0C9426010C9426010C942601D7
:100020000C9426010C9426010C94C80E0C94260105
:100030000C9426010C9497140C9426010C94260120
:100040000C9426010C9426010C9426010C94BC12ED
:100050000C94260154686520526F626F74206E659F
:1000600065647320746F20626520726573657474B3
:100070006564206E6F772E0A0A00596F75206E65D1
:10008000656420746F20636865636B204D6F746FC7
:100090007220617373656D626C7920286F722079AC
:1000A0006F757220736F667477617265292E0A0A04
:1000B000000A0A28732E207461736B5F6D6F746F72
:1000C00072436F6E74726F6C28292066756E63744C
:1000D000696F6E20696E205250364C696221290A80
:1000E000000A0A232323204D4F544F52204F5645D8
:1000F0005243555252454E54202323230A00596F30
:1001000075206E65656420746F20636865636B207D
:10011000456E636F6465722F4D6F746F72206173EB
:1001200073656D626C7920286F7220796F7572200B
:10013000736F667477617265292E0A0A00210A0AB4
:1001400028732E207461736B5F6D6F746F72436FD1
:100150006E74726F6C28292066756E6374696F6E99
:1001600020696E205250364C696221290A0052499A
:10017000474854004C4546540041666665637465C3
:1001800064206368616E6E656C3A000A2323232045
:10019000454E434F44455220284F52204D4F544F17
:1001A0005229204D414C46554E4354494F4E212033
:1001B0002323230A00232323232320414C4C204FB5
:1001C0005045524154494F4E532053544F5050457F
:1001D0004420544F2050524556454E5420414E59CC
:1001E0002044414D414745212023232323230A0056
:1001F0000A0A232323232320454D455247454E43D6
:10020000592053485554444F574E2023232323232A
:100210000A0011241FBECFE5D8E0DEBFCDBF11E03C
:10022000A0E6B0E0EAE6F2E302C005900D92A83243
:10023000B107D9F712E0A8E2B1E001C01D92A832DF
:10024000B107E1F70E947F150C9433190C9400005C
:10025000DF93CF93CDB7DEB780915D01843010F08E
:1002600010925D01CF91DF910895DF93CF93CDB7C9
:10027000DEB784E080935D01CF91DF910895DF9335
:10028000CF9300D0CDB7DEB7A7E3B0E0E7E3F0E06F
:1002900080818C778C93A8E3B0E0E8E3F0E0808184
:1002A0008C778C9380918B018870882371F0A7E301
:1002B000B0E0E7E3F0E0808180688C93A8E3B0E0F1
:1002C000E8E3F0E0808180688C9380918B018071FD
:1002D000882371F0A7E3B0E0E7E3F0E0808182607B
:1002E0008C93A8E3B0E0E8E3F0E0808182608C9337
:1002F00080918B018072882371F0A7E3B0E0E7E37F
:10030000F0E0808181608C93A8E3B0E0E8E3F0E066
:10031000808181608C93A4E3B0E0E4E3F0E080812D
:100320008F788C93A5E3B0E0E5E3F0E080818F78EF
:100330008C93A4E3B0E0E4E3F0E08081282F809187
:100340008B01882F90E082959295907F9827807FEF
:1003500098278077822B8C93A5E3B0E0E5E3F0E06B
:100360008081282F80918B01882F90E08295929533
:10037000907F9827807F98278077822B8C9380911D
:100380005D01882359F480918B018A838A818823B7
:1003900011F081E08A838A81898303C080915D01A5
:1003A0008983898180935D010F900F90CF91DF91B8
:1003B0000895DF93CF930F92CDB7DEB789838981FC
:1003C00080938B010E943F010F90CF91DF910895A0
:1003D000DF93CF930F92CDB7DEB7A8E3B0E0E8E3A9
:1003E000F0E080818E7F8C93A7E3B0E0E7E3F0E05C
:1003F00080818E7F8C930000E6E3F0E08081817045
:10040000898380918B018072882371F0A7E3B0E02B
:10041000E7E3F0E0808181608C93A8E3B0E0E8E35B
:10042000F0E0808181608C9389810F90CF91DF9182
:100430000895DF93CF930F92CDB7DEB7A5E3B0E079
:10044000E5E3F0E080818F7B8C93A4E3B0E0E4E30C
:10045000F0E080818F7B8C930000E3E3F0E080810B
:100460008074898380918B018470882371F0A4E368
:10047000B0E0E4E3F0E0808180648C93A5E3B0E039
:10048000E5E3F0E0808180648C9389810F90CF91C7
:10049000DF910895DF93CF93CDB7DEB7CF91DF9192
:1004A0000895DF93CF9300D0CDB7DEB79A838983C9
:1004B00089819A8190936100809360000F900F90E2
:1004C000CF91DF910895DF93CF9300D0CDB7DEB702
:1004D000809196018333E8F00E94E8018A830E94AC
:1004E00019028983909146018A81981729F4909185
:1004F000A7018981981759F08A81809346018981E3
:100500008093A701E0916000F0916100099510923D
:1005100096010F900F90CF91DF910895DF93CF93C5
:1005200000D00F92CDB7DEB78983E6E2F0E080819C
:10053000882F90E080749070009719F01B821A82C7
:100540001FC0E7E2F0E0898180648083E6E2F0E0AA
:1005500086ED8083E6E2F0E08081882F90E0807471
:1005600090700097B9F7A6E2B0E0E6E2F0E0808193
:1005700080618C93E4E2F0E0808191819B838A83A7
:100580008A819B810F900F900F90CF91DF910895FA
:10059000DF93CF930F92CDB7DEB78983E7E2F0E028
:1005A000898180648083E6E2F0E086ED80830F90AD
:1005B000CF91DF910895DF93CF9300D0CDB7DEB711
:1005C000E6E2F0E08081882F90E0807490700097E0
:1005D00009F091C080912D01282F30E03A832983C2
:1005E00089819A818330910509F44AC029813A8131
:1005F000243031057CF489819A818130910541F163
:1006000029813A81223031057CF589819A810097D0
:1006100099F065C029813A812530310509F448C037
:1006200089819A8185309105BCF129813A812630F2
:10063000310509F449C053C0E4E2F0E080819181C2
:100640009093AB018093AA0186E00E94C80247C044
:10065000E4E2F0E0808191819093B0018093AF015A
:1006600085E00E94C8023BC0E4E2F0E08081918115
:100670009093A1018093A00183E00E94C8022FC043
:10068000E4E2F0E0808191819093690180936801B8
:1006900082E00E94C80223C0E4E2F0E08081918100
:1006A0009093900180938F0180E00E94C80217C050
:1006B000E4E2F0E08081918190939E0180939D011E
:1006C00081E00E94C8020BC0E4E2F0E080819181E9
:1006D000909367018093660187E00E94C802809131
:1006E0002D01863019F410922D0105C080912D0145
:1006F0008F5F80932D010F900F90CF91DF91089520
:100700001F920F920FB60F9211248F939F93DF9336
:10071000CF93CDB7DEB78091A5019091A601019648
:100720009093A6018093A50180919B0190919C01DB
:10073000019690939C0180939B01CF91DF919F91B3
:100740008F910F900FBE0F901F9018951F920F92D0
:100750000FB60F9211248F939F93DF93CF93CDB752
:10076000DEB780919701909198010196909398013E
:1007700080939701809170019091710101969093FF
:10078000710180937001CF91DF919F918F910F90B4
:100790000FBE0F901F901895DF93CF93CDB7DEB7A4
:1007A000CF91DF910895DF93CF9300D0CDB7DEB71F
:1007B0009A83898389819A819093630080936200F0
:1007C0000F900F90CF91DF910895DF93CF9300D0DA
:1007D000CDB7DEB78A83F894A2E3B0E0E2E3F0E0BD
:1007E00080818F778C930E94F20D10925F0110929E
:1007F0005E0110926F0110926E01109259011092D9
:10080000580110929501109294011092AE0110922D
:100810008C01EAE4F0E01082E8E4F0E01082EFE41A
:10082000F0E010820E94A10E80EF91E00E94D413AC
:1008300085EB91E00E94D4138A81813019F08A817E
:100840008230E9F48BE891E00E94D41389E791E0CB
:100850000E94D4138A81813029F484E791E00E94B8
:10086000D41304C08EE691E00E94D4138DE391E08E
:100870000E94D4138EEF90E00E94D4130FC08A819F
:10088000833061F481EE90E00E94D41381EB90E01C
:100890000E94D4138AE790E00E94D41384E590E08C
:1008A0000E94D41386E30E94D9018AE0898307C09D
:1008B00080E090E80E94AE1189818150898389810E
:1008C0008823B1F780E00E94D9018AE0898307C0BC
:1008D0008FEF9FEF0E94AE118981815089838981BA
:1008E0008823B1F7DFCFDF93CF93CDB7DEB728975B
:1008F0000FB6F894DEBF0FBECDBF80918A01823360
:1009000008F47EC010928A0180918701882309F043
:1009100043C08091AF019091B00123E083309207F2
:1009200040F48091A0019091A10143E083309407AD
:10093000F0F0809189018F5F809389018AE0809334
:10094000870110925F0110925E0110926F01109268
:100950006E01109259011092580110929501109257
:1009600094018091510184608093510159C280911A
:1009700051018B7F8093510180915401853628F07D
:10098000109289011092540107C08091890183302F
:1009900018F083E00E94E5038091AF019091B001CF
:1009A0008639910598F480916001909161010097DA
:1009B00069F480914D0190914E01009739F080913A
:1009C000AE01873918F081E00E94E5038091A00113
:1009D0009091A1018639910598F48091A30190919D
:1009E000A401009769F48091490190914A01009710
:1009F00039F080918C01873918F082E00E94E5037C
:100A000080915C01882309F4FCC1809187018823CF
:100A100009F0F0C180918901882331F0809154015F
:100A20008F5F8093540102C0109254018091510154
:100A30008270882309F43FC02091A5013091A6015E
:100A400080914701909148012817390790F0109242
:100A50004E0110924D0110925901109258011092BE
:100A60005F0110925E01809151018D7F8093510151
:100A700022C02091A5013091A60180916201909140
:100A8000630128173907B8F080914D0190914E010C
:100A90009695879590934E0180934D0180914D01DD
:100AA00090914E018631910530F486E190E090936B
:100AB0004E0180934D01809151018170882309F48A
:100AC0003FC0209197013091980180916C019091E5
:100AD0006D012817390790F010924A0110924901D0
:100AE000109295011092940110926F0110926E0174
:100AF000809151018E7F8093510122C020919701F6
:100B0000309198018091990190919A0128173907A5
:100B1000B8F08091490190914A01969587959093FC
:100B20004A01809349018091490190914A0186319F
:100B3000910530F486E190E090934A018093490159
:100B40009091280180912A01981739F490912901F8
:100B500080912B01981709F464C080914D01909108
:100B60004E01009731F48091490190914A0100971C
:100B700041F180914D0190914E01909350018093ED
:100B80004F018091490190914A01909365018093B2
:100B9000640110924E0110924D0110924A01109280
:100BA000490110926F0110926E0110925F01109234
:100BB0005E01109259011092580110929501109205
:100BC0009401EFE4F0E08081882359F580912801B9
:100BD00090912901692F0E94960980914F0190916F
:100BE000500190934E0180934D018091640190914A
:100BF000650190934A018093490180914D01909144
:100C00004E01969587959093590180935801809154
:100C1000490190914A01969587959093950180930B
:100C2000940120914D0130914E018091600190918D
:100C30006101A901481B590BCA019C838B83209138
:100C40005801309159018B819C81820F931F9093A1
:100C5000590180935801809158019091590151E0B8
:100C6000853A950734F084EA91E090935901809396
:100C7000580180915801909159012EEF8C359207BF
:100C800034F48CE59EEF9093590180935801809144
:100C9000600190916101009751F480914D01909114
:100CA0004E01009721F41092590110925801809141
:100CB0005801909159019E838D834D815E8155230A
:100CC0002CF48D819E8101969E838D838D819E81E2
:100CD0009595879590935F0180935E0180915E0169
:100CE00090915F01833D910534F082ED90E0909307
:100CF0005F0180935E0180915E0190915F01992375
:100D000024F410925F0110925E012091490130910C
:100D10004A018091A3019091A401A901481B590B9C
:100D2000CA019A8389832091940130919501898128
:100D30009A81820F931F90939501809394018091E3
:100D400094019091950151E0853A950734F084EA39
:100D500091E09093950180939401809194019091FA
:100D600095012EEF8C35920734F48CE59EEF90932D
:100D70009501809394018091A3019091A401009723
:100D800051F48091490190914A01009721F4109209
:100D9000950110929401809194019091950198870A
:100DA0008F834F81588555232CF48F819885019628
:100DB00098878F838F8198859595879590936F01FC
:100DC00080936E0180916E0190916F01833D91053A
:100DD00034F082ED90E090936F0180936E018091EA
:100DE0006E0190916F01992354F410926F0110924B
:100DF0006E0105C080918701815080938701109218
:100E00005C01909151018091A901981749F080915E
:100E100051018093A901E0916200F091630009956E
:100E200028960FB6F894DEBF0FBECDBFCF91DF91ED
:100E30000895DF93CF9300D0CDB7DEB789836A835F
:100E40008981893C10F088EC89838A81893C10F083
:100E500088EC8A838981882F90E090934E0180935B
:100E60004D018A81882F90E090934A018093490137
:100E70000F900F90CF91DF910895DF93CF9300D023
:100E800000D00F92CDB7DEB78983898180932C0182
:100E90008981813019F08981823029F481E090E0E4
:100EA0009D838C8302C01D821C828C8180932801CB
:100EB0008981813019F08981833029F481E090E0C3
:100EC0009B838A8302C01B821A828A8180932901B4
:100ED0000F900F900F900F900F90CF91DF9108958A
:100EE000DF93CF93CDB7DEB72A970FB6F894DEBF66
:100EF0000FBECDBF9C838B837E836D831A868B81CF
:100F00009C81992314F481E08A878A858093280143
:100F100019868D819E81992314F481E089878985C2
:100F2000809329018B819C81181619061CF48B81F2
:100F3000888703C08B818195888788858A838B8188
:100F40009C81181619061CF48D818F8303C08D8136
:100F500081958F838F8189838A8169810E94190796
:100F60002A960FB6F894DEBF0FBECDBFCF91DF91AA
:100F70000895DF93CF9300D0CDB7DEB780915101B4
:100F80008170882351F4809151018270882329F463
:100F900081E090E09A83898302C01A821982898154
:100FA0000F900F90CF91DF910895DF93CF93CDB73E
:100FB000DEB710924E0110924D0110924A0110922C
:100FC0004901109259011092580110929501109206
:100FD0009401809151018E7F809351018091510144
:100FE0008D7F80935101809151018093A901E091FF
:100FF0006200F09163000995CF91DF910895DF932E
:10100000CF9300D000D00F92CDB7DEB789836A832B
:101010005C834B832D8380915101816080935101CA
:101020008091510182608093510110929A01109237
:101030009901109263011092620189818731D0F089
:101040008981282F30E086EF9FEF821B930B880F5A
:10105000991F9C018B819C81820F931F90939A0111
:10106000809399018091990190919A0190936301E5
:10107000809362018B819C81029790936D01809394
:101080006C0180916C0190916D0190934801809367
:1010900047018B819C818832910500F588E290E0C0
:1010A0009C838B8384E190E090936D0180936C012D
:1010B00080916C0190916D0190934801809347015C
:1010C0008AE090E090939A01809399018091990130
:1010D00090919A0190936301809362018B819C812E
:1010E00021E080399207E0F489818932C8F088E2F2
:1010F00089838B819C819C01369527953695279510
:101100008B819C81821B930B90939A018093990110
:101110008091990190919A0190936301809362016B
:101120001092A6011092A5011092980110929701B9
:10113000898169810E9419078A810E943D078B81FC
:101140009C8190937501809374018B819C81909315
:10115000560180935501809151018093A90180919E
:1011600051018093A901E0916200F091630009951B
:101170008D81882339F002C00E94F7110E94B907BF
:101180008823D1F30F900F900F900F900F90CF9175
:10119000DF910895DF93CF93CDB7DEB727970FB6D2
:1011A000F894DEBF0FBECDBF8B836C835E834D830F
:1011B0002F83809151018160809351018091510171
:1011C0008260809351018D819E81CC01A0E0B0E0CE
:1011D00020EB32E040E050E0BC01CD010E949F18BE
:1011E000DC01CB0124E630E040E050E0BC01CD0161
:1011F0000E94D218DA01C9019A83898389819A8170
:101200008456904090939A018093990189819A81A4
:1012100084569040909363018093620189819A8102
:1012200090936D0180936C0189819A81909348011C
:101230008093470189819A8188329105E0F488E2A0
:1012400090E09A83898384E190E090936D0180938C
:101250006C0184E190E090934801809347018AE01B
:1012600090E090939A01809399018AE090E09093A6
:101270006301809362018B816B810E9419078C81CD
:101280000E943D071092A6011092A50110929801AC
:101290001092970189819A819093750180937401CE
:1012A00089819A81909356018093550180915101D3
:1012B0008093A901E0916200F091630009958F810C
:1012C000882339F002C00E94F7110E94B9078823D1
:1012D000D1F327960FB6F894DEBF0FBECDBFCF91E6
:1012E000DF910895DF93CF9300D0CDB7DEB7898328
:1012F0006A838981833D10F082ED89838A81833DF1
:1013000010F082ED8A838A81882F90E090936F019C
:1013100080936E018981882F90E090935F01809384
:101320005E010F900F90CF91DF910895DF93CF93DF
:1013300000D0CDB7DEB789836A83898180932A0183
:101340008A8180932B018981809328018A818093EF
:1013500029018981882341F0A5E3B0E0E5E3F0E0CD
:10136000808184608C9307C0A5E3B0E0E5E3F0E002
:1013700080818B7F8C938A81882341F0A5E3B0E044
:10138000E5E3F0E0808188608C9307C0A5E3B0E0DE
:10139000E5E3F0E08081877F8C930F900F90CF91F1
:1013A000DF910895DF93CF9300D0CDB7DEB7898367
:1013B0006A8307C0A9E5B0E0E9E5F0E080818068D4
:1013C0008C93809153018823A9F78981882F90E01D
:1013D0008F7390709C01002436952795079436955D
:1013E00027950794322F202D8A81882F90E08F73C4
:1013F0009070822B932B9063909373018093720172
:10140000809152018064809352010F900F90CF9190
:10141000DF9108951F920F920FB60F9211248F93B0
:101420009F93AF93BF93EF93FF93DF93CF93CDB78A
:10143000DEB780916400823008F065C080912E0193
:101440008823D9F180912E018C33C8F480918D01CD
:1014500090918E0180709074009749F0A2E3B0E003
:10146000E2E3F0E0908180E889278C9320C0A2E33A
:10147000B0E0E2E3F0E080818F778C9318C0809138
:101480008D0190918E0180709074009741F0A2E3DD
:10149000B0E0E2E3F0E080818F778C9308C0A2E3B4
:1014A000B0E0E2E3F0E0908180E889278C938091BE
:1014B0002E01815080932E0154C0809153018823C6
:1014C000D1F0A2E3B0E0E2E3F0E080818F778C938B
:1014D00080918D0190918E01880F991F90938E01BC
:1014E00080938D0188E780932E0180915301815074
:1014F0008093530136C0A2E3B0E0E2E3F0E08081E4
:101500008F778C932EC0809157018823E1F08091D2
:1015100052018170882349F4A8E3B0E0E8E3F0E0E9
:10152000908180E489278C9308C0A5E3B0E0E5E3CF
:10153000F0E0908180E889278C9380915701815059
:10154000809357010EC0A8E3B0E0E8E3F0E08081AB
:1015500080648C93A5E3B0E0E5E3F0E080818068EF
:101560008C93CF91DF91FF91EF91BF91AF919F91BC
:101570008F910F900FBE0F901F9018951F920F9292
:101580000FB60F9211248F939F93EF93FF93DF93E6
:10159000CF930F92CDB7DEB780916400833021F0F6
:1015A000809164008630C1F480915201807188235B
:1015B00099F4809152018072882371F0E6E3F0E0A3
:1015C0008081882F90E084709070009729F480913A
:1015D000A8018F5F8093A801E6E3F0E0808180910D
:1015E00052018D7F809352010F90CF91DF91FF9137
:1015F000EF919F918F910F900FBE0F901F901895B4
:10160000DF93CF9300D0CDB7DEB79A8389830F9055
:101610000F90CF91DF910895DF93CF9300D0CDB796
:10162000DEB79A83898389819A819093660080933B
:1016300065000F900F90CF91DF910895DF93CF93C6
:10164000CDB7DEB7CF91DF910895DF93CF9300D070
:10165000CDB7DEB79A83898389819A819093680098
:10166000809367000F900F90CF91DF910895DF93E3
:10167000CF93CDB7DEB72E970FB6F894DEBF0FBE6F
:10168000CDBF80916A0190916B018230910508F481
:101690004DC2809152018071882309F024C280914B
:1016A0006400282F30E03E872D878D859E8582300F
:1016B000910509F4B9C02D853E852330310554F4D8
:1016C0008D859E850097C9F02D853E852130310599
:1016D00089F10FC28D859E858530910509F454C12D
:1016E0002D853E852630310509F483C18D859E8583
:1016F0008330910509F4CDC0FCC1A9E5B0E0E9E56E
:10170000F0E080818F778C93A2E3B0E0E2E3F0E039
:1017100080818F778C93A8E3B0E0E8E3F0E08081EC
:1017200080648C93A5E3B0E0E5E3F0E0808180681D
:101730008C93DFC180915301882309F04DC08091C3
:10174000520180748823C1F08091720190917301DD
:1017500090938E0180938D018EE080935301809150
:1017600052018F7B80935201A9E5B0E0E9E5F0E0FA
:10177000808180688C931CC0A9E5B0E0E9E5F0E0C9
:1017800080818F778C93A2E3B0E0E2E3F0E0808188
:101790008F778C93A8E3B0E0E8E3F0E08081806489
:1017A0008C93A5E3B0E0E5E3F0E0808180688C9362
:1017B000909133019C871B862C85243110F031E0F9
:1017C0003B878C858F5F809333018B85882359F00D
:1017D00082E08093640007C0A9E5B0E0E9E5F0E0AD
:1017E000808180688C93809152018870882309F4ED
:1017F00080C1E0916500F09166008091AC0190910C
:10180000AD0109958091AC019091AD0190935B0180
:1018100080935A011092AD011092AC018091520157
:10182000877F8093520165C1A9E5B0E0E9E5F0E06A
:1018300080818F778C93A2E3B0E0E2E3F0E08081D7
:101840008F778C93A8E3B0E0E8E3F0E080818064D8
:101850008C93A5E3B0E0E5E3F0E0808180688C93B1
:10186000109257011092A80110923201109231018A
:10187000809152018E7F809352018091520180624B
:101880008093520183E08093330183E0809364006E
:1018900030C1809157018823E1F4909133019A87F8
:1018A00019862A85233010F031E039878A858F5FC9
:1018B000809333018985882361F0A9E5B0E0E9E5EB
:1018C000F0E0808180688C9388E2809357011092C9
:1018D000330180918801882369F08091A8018230CA
:1018E00048F01092A80181E08093880185E0809300
:1018F0006400FFC08091A801863048F01092A801D2
:1019000081E08093880185E080936400F2C020919B
:1019100031013091320138872F831E828F81988563
:101920008E30910510F091E09E838F81988501960D
:1019300090933201809331012E81222309F4D9C082
:101940001092880185E080936400A9E5B0E0E9E5A4
:10195000F0E080818F778C93A2E3B0E0E2E3F0E0E7
:1019600080818F778C93A8E3B0E0E8E3F0E080819A
:1019700080648C93A5E3B0E0E5E3F0E080818068CB
:101980008C9310925701B5C0A9E5B0E0E9E5F0E00D
:1019900080818F778C93A2E3B0E0E2E3F0E0808176
:1019A0008F778C93A8E3B0E0E8E3F0E08081806477
:1019B0008C93A5E3B0E0E5E3F0E0808180688C9350
:1019C000109257011092A801109232011092310129
:1019D0008091520181608093520180915201806216
:1019E0008093520183E08093330186E0809364000A
:1019F00080C0809157018823E1F4309133013D8309
:101A00001C828D81833010F091E09C838D818F5FEB
:101A1000809333012C81222361F0A9E5B0E0E9E550
:101A2000F0E0808180688C9388E280935701109267
:101A3000330180919201882369F08091A80182305E
:101A400048F01092A80181E08093920181E0809398
:101A500064004FC08091A801863048F01092A80120
:101A600081E08093920181E08093640042C0809184
:101A70003101909132019B838A8319822A813B81B3
:101A80002E30310510F031E039838A819B81019637
:101A900090933201809331018981882351F1109212
:101AA000920181E080936400A9E5B0E0E9E5F0E00F
:101AB00080818F778C93A2E3B0E0E2E3F0E0808155
:101AC0008F778C93A8E3B0E0E8E3F0E08081806456
:101AD0008C93A5E3B0E0E5E3F0E0808180688C932F
:101AE0001092570106C010923201109231011092EB
:101AF00033019091300180918801981731F49091D1
:101B00002F0180919201981769F08091880180934C
:101B100030018091920180932F01E0916700F09154
:101B20006800099510926B0110926A012E960FB60B
:101B3000F894DEBF0FBECDBFCF91DF910895DF9344
:101B4000CF93CDB7DEB710926400A9E5B0E0E9E528
:101B5000F0E080818F778C93A2E3B0E0E2E3F0E0E5
:101B600080818F778C93A8E3B0E0E8E3F0E0808198
:101B700080648C93A5E3B0E0E5E3F0E080818068C9
:101B80008C931092920110928801CF91DF91089569
:101B9000DF93CF93CDB7DEB7A9E5B0E0E9E5F0E09C
:101BA00080818F778C93A2E3B0E0E2E3F0E0808164
:101BB0008F778C93A8E3B0E0E8E3F0E08081806465
:101BC0008C93A5E3B0E0E5E3F0E0808180688C933E
:101BD000109292011092880181E080936400CF916D
:101BE000DF910895DF93CF93CDB7DEB7A1E3B0E0E7
:101BF000E1E3F0E080818F7B8C93A2E3B0E0E2E34D
:101C0000F0E080818F7B8C93A7E3B0E0E7E3F0E026
:101C10008081877F8C93A8E3B0E0E8E3F0E08081E7
:101C2000877F8C93A8E3B0E0E8E3F0E080818F7BCE
:101C30008C93A5E3B0E0E5E3F0E080818F778C93AF
:101C4000CF91DF910895DF93CF93CDB7DEB7A1E3B6
:101C5000B0E0E1E3F0E0808180648C93A2E3B0E047
:101C6000E2E3F0E0808180648C93A7E3B0E0E7E3F7
:101C7000F0E08081877F8C93A8E3B0E0E8E3F0E0B8
:101C80008081877F8C93CF91DF910895DF93CF93ED
:101C9000CDB7DEB7A1E3B0E0E1E3F0E080818F7B78
:101CA0008C93A2E3B0E0E2E3F0E080818F7B8C9341
:101CB000A7E3B0E0E7E3F0E0808188608C93A8E3DD
:101CC000B0E0E8E3F0E0808188608C93CF91DF9111
:101CD0000895DF93CF93CDB7DEB7A1E3B0E0E1E3A2
:101CE000F0E0808180648C93A2E3B0E0E2E3F0E076
:101CF000808180648C93A7E3B0E0E7E3F0E080812B
:101D000088608C93A8E3B0E0E8E3F0E0808188602D
:101D10008C93CF91DF910895DF93CF93CDB7DEB74A
:101D2000A8E3B0E0E8E3F0E0808180618C938091EB
:101D30005D01843018F483E080935D01CF91DF91E1
:101D40000895DF93CF9300D0CDB7DEB7A8E3B0E01E
:101D5000E8E3F0E080818F7E8C9380915D01843098
:101D600090F480915D01882321F480918B01882378
:101D700029F081E090E09A83898302C01A82198257
:101D8000898180935D010F900F90CF91DF9108952D
:101D90001F920F920FB60F9211242F933F935F93D0
:101DA0006F937F938F939F93AF93BF93EF93FF9323
:101DB000DF93CF93CDB7DEB72B97DEBFCDBF80913A
:101DC0004B0190914C01019690934C0180934B01F3
:101DD00080919F018F5F80939F012091A2012B87AB
:101DE0001A868B85893010F091E09A878B858F5FFA
:101DF0008093A2012A85222309F4ECC18091760107
:101E0000882F90E081709070882349F0809177014D
:101E10009091780101969093780180937701809159
:101E20007601882F90E082709070009749F0809141
:101E3000790190917A01019690937A0180937901CA
:101E400080917601882F90E084709070009749F01F
:101E500080917B0190917C01019690937C0180930D
:101E60007B0180917601882F90E0887090700097B8
:101E700049F080917D0190917E01019690937E01C1
:101E800080937D0180917601882F90E08071907021
:101E9000009749F080917F01909180010196909385
:101EA000800180937F0180917601882F90E080727D
:101EB0009070009749F08091810190918201019684
:101EC000909382018093810180917601882F90E028
:101ED00080749070009749F0809183019091840103
:101EE00001969093840180938301809176018823E9
:101EF0004CF4809185019091860101969093860122
:101F00008093850180919301898718869985993CF2
:101F100010F021E0288789858F5F80939301888561
:101F20008823E9F080917001909171019093A40150
:101F30008093A30180919B0190919C0190936101FA
:101F400080936001109271011092700110929C01B7
:101F500010929B0181E080935C011092930180912B
:101F60005D01833008F0A3C080915D01823009F0EB
:101F70006BC080918B01882309F04BC080913801A0
:101F8000909139019F838E8328EC30E08E819F8170
:101F9000B9010E94BE181D82009711F491E09D8343
:101FA0008E819F81019690933901809338012D8114
:101FB000222309F47CC080913801909139012FE0EF
:101FC000813A9207A8F0A7E3B0E0E7E3F0E0808170
:101FD0008D7F8C93A8E3B0E0E8E3F0E080818D7F13
:101FE0008C9310925D0110923901109238015FC0FC
:101FF000A7E3B0E0E7E3F0E0908182E089278C93EB
:10200000A8E3B0E0E8E3F0E0908182E089278C93D8
:102010004EC080918B018071882371F4A7E3B0E0FA
:10202000E7E3F0E080818D7F8C93A8E3B0E0E8E304
:10203000F0E080818D7F8C931092390110923801ED
:1020400081E080935D0133C0809138019091390126
:102050002EE2813E920710F180915D018130B1F452
:1020600010925D0180918B018071882391F4A7E328
:10207000B0E0E7E3F0E080818D7F8C93A8E3B0E0EF
:10208000E8E3F0E080818D7F8C9303C082E0809351
:102090005D01109239011092380109C08091380118
:1020A0009091390101969093390180933801809184
:1020B0006A0190916B018330910548F480916A0127
:1020C00090916B01019690936B0180936A018091CE
:1020D0008A01873328F480918A018F5F80938A0177
:1020E00080919601843328F4809196018F5F8093CC
:1020F0009601809191018C831B829C81933010F01A
:1021000021E02B838C818F5F809391018B818823C9
:1021100009F45EC080918C01282F30E080916E011F
:1021200090916F0128173907D9F080918C01282FE1
:1021300030E080916E0190916F012817390734F4D7
:1021400080918C018F5F80938C0105C080918C0100
:10215000815080938C01EAE4F0E080918C018083CF
:102160008091AE01282F30E080915E0190915F0157
:1021700028173907D9F08091AE01282F30E08091DF
:102180005E0190915F012817390734F48091AE0108
:102190008F5F8093AE0105C08091AE018150809326
:1021A000AE01E8E4F0E08091AE0180838091AE0161
:1021B000882321F480918C01882329F0EFE4F0E05A
:1021C00082EA808303C0EFE4F0E010821092910174
:1021D0001092A201809152018870882309F077C083
:1021E00080913401909135019A83898380913601E1
:1021F0008F5F80933601809136018631F0F08981BE
:102200009A8180709074009789F489819A81807096
:102210009072009759F089819A819093AD018093D3
:10222000AC018091520188608093520180915201EB
:102230008F7E809352011A821982E6E3F0E090814A
:10224000809137018927882F90E0847090700097E3
:10225000C1F18091370180958093370180913601DB
:10226000873038F4809152018F7E809352011A8218
:10227000198289819A81009721F0809136018F30EF
:1022800000F18091520180618093520189819A818D
:1022900080709074009731F489819A81880F991F1A
:1022A0009A83898380913701882F90E084709070A1
:1022B000009729F489819A8181609A838983109299
:1022C000360189819A8190933501809334012B9650
:1022D000DEBFCDBFCF91DF91FF91EF91BF91AF9165
:1022E0009F918F917F916F915F913F912F910F906F
:1022F0000FBE0F901F901895DF93CF930F92CDB71D
:10230000DEB7898310929F0190919F018981981770
:10231000D8F30F90CF91DF910895DF93CF9300D042
:102320000F92CDB7DEB79A83898303C08AE00E94FB
:102330007C111B8289819A81009711F081E08B8347
:1023400089819A8101979A8389838B81882371F788
:102350000F900F900F90CF91DF910895DF93CF935F
:1023600000D00F92CDB7DEB79A83898301C00000F9
:102370001B8289819A81009711F081E08B8389818A
:102380009A8101979A8389838B81882381F70F90A3
:102390000F900F90CF91DF910895DF93CF93CDB73A
:1023A000DEB7AAE3B0E0EAE3F0E0808180618C93DD
:1023B000ABE3B0E0EBE3F0E0808180618C93CF9100
:1023C000DF910895DF93CF93CDB7DEB7ABE3B0E0F5
:1023D000EBE3F0E080818F7E8C93AAE3B0E0EAE348
:1023E000F0E080818F7E8C93CF91DF910895DF9311
:1023F000CF93CDB7DEB70E94DB020E94370B0E945D
:1024000063020E947304CF91DF910895DF93CF930D
:102410000F92CDB7DEB7EBE3F0E01082E8E3F0E037
:102420001082E5E3F0E01082E2E3F0E081E08083F7
:10243000EAE3F0E01082E7E3F0E088E58083E4E39C
:10244000F0E08CE88083E1E3F0E082EF8083F894B1
:10245000A8E3B0E0E8E3F0E080818F7D8C93A7E310
:10246000B0E0E7E3F0E0808180628C938C91A2E39E
:10247000B0E0E2E3F0E080818F778C930E94F20D70
:10248000E0E4F0E01082E9E2F0E08CE08083EBE24F
:10249000F0E01082E0E4F0E086E88083EAE2F0E039
:1024A00088E98083E7E2F0E01082E6E2F0E086E18E
:1024B0008083E0E5F0E01082E5E5F0E085E08083F0
:1024C000EBE5F0E080EE8083E4E5F0E01082E3E508
:1024D000F0E08AE08083ECE5F0E083E68083EFE4DF
:1024E000F0E082EA8083EEE4F0E081E18083E6E4DC
:1024F000F0E082ED90E091838083EAE4F0E01082E6
:10250000E8E4F0E0108280E060E00E949609E5E4F3
:10251000F0E089E08083E3E4F0E08EE68083E9E5A3
:10252000F0E082E0808380915201816080935201CB
:1025300081E08093640078940F90CF91DF910895AB
:10254000DF93CF930F92CDB7DEB78983F894E2E2A1
:10255000F0E089818083E3E2F0E08FEF8083E6E5BD
:10256000F0E084E080837894E6E5F0E085EC808319
:102570000F90CF91DF9108951F920F920FB60F9297
:1025800011242F933F938F939F93AF93BF93EF9318
:10259000FF93DF93CF9300D0CDB7DEB7E1E2F0E059
:1025A0008081282F30E03A83298389819A8180397C
:1025B000910509F49CC029813A81213931059CF4A7
:1025C00089819A818037910509F489C029813A81EE
:1025D0002038310509F45AC089819A8180369105E5
:1025E00009F449C098C029813A81283A3105B9F0E7
:1025F00089819A81893A91053CF429813A81203A6E
:10260000310509F47EC087C089819A81883B910594
:1026100061F029813A81203C3105F9F07CC084E0E9
:1026200080933E0181E080933C0180913E018430A3
:1026300079F4A3E2B0E020913F01822F90E0FC0109
:10264000EE53FE4F80818C93822F8F5F80933F01EA
:10265000E6E5F0E085EC808362C010923E011092C6
:102660003F0110923C0181E080933A01E6E5F0E001
:1026700085EC808354C081E080933D0182E08093AB
:102680003E01E6E5F0E085EC808349C080913E01A3
:10269000823069F4E3E2F0E0808180933F01809131
:1026A0003F0180933B0183E080933E0113C0809102
:1026B0003E01833079F430913F01832F90E0E3E2D3
:1026C000F0E02081FC01EE54FE4F2083832F8F5FCA
:1026D00080933F01E6E5F0E085EC808320C081E057
:1026E00080933E01E6E5F0E085EC808318C0E3E2EC
:1026F000F0E080818093B101E6E5F0E085EC808335
:102700000EC085E080933E01E6E5F0E085EC808335
:1027100010923D0104C0E6E5F0E084E880830F906C
:102720000F90CF91DF91FF91EF91BF91AF919F916A
:102730008F913F912F910F900FBE0F901F90189582
:10274000DF93CF930F92CDB7DEB78983EBE2F0E052
:102750008081882F90E0807290700097B9F3ECE24E
:10276000F0E0898180830F90CF91DF910895DF930E
:10277000CF9300D0CDB7DEB79A8389830BC0E981B0
:10278000FA81208189819A8101969A838983822F97
:102790000E94A013E981FA818081882381F70F903C
:1027A0000F90CF91DF910895DF93CF9300D000D0A9
:1027B00000D0CDB7DEB79E838D8303C08C810E948D
:1027C000A0138D819E819B838A838D819E8101963A
:1027D0009E838D83EA81FB818491898389818C83A7
:1027E0008C81882359F726960FB6F894DEBF0FBE6A
:1027F000CDBFCF91DF910895DF93CF9300D000D06C
:10280000CDB7DEB79A8389836B834C838C81282F65
:1028100030E089819A81820F931F9A8389830EC049
:10282000E981FA81208189819A8101969A8389833D
:10283000822F0E94A0138B8181508B83E981FA81C2
:102840008081882319F08B81882351F70F900F9096
:102850000F900F90CF91DF910895DF93CF93CDB775
:10286000DEB764970FB6F894DEBF0FBECDBF9B8B6B
:102870008A8B6C8B8C89482F50E08A899B899E01BA
:102880002F5F3F4FB9010E94FE18CE0101960E94B2
:10289000B71364960FB6F894DEBF0FBECDBFCF91CD
:1028A000DF910895DF93CF93CDB7DEB766970FB66C
:1028B000F894DEBF0FBECDBF9C8B8B8B6D8B4E8B88
:1028C0008D89482F50E08B899C899E012E5F3F4F58
:1028D000B9010E94FE18CE0102960E94F418982FAA
:1028E0008E89891B8983898118167CF406C08981A9
:1028F0008150898380E30E94A01389811816BCF35C
:10290000CE0102960E94B71309C089818195282FB4
:10291000CE0102966E89422F0E94FC1366960FB676
:10292000F894DEBF0FBECDBFCF91DF9108951F9207
:102930000F920FB60F9211242F933F938F939F9373
:10294000EF93FF93DF93CF93CDB7DEB78091430131
:1029500090914201891B8032E8F490914101292F26
:1029600030E0ECE2F0E08081F901ED50FE4F808331
:10297000892F8F5F80934101809143018F5F809306
:10298000430180914101813210F010924101109277
:10299000F20108C0ECE2F0E080818093440181E024
:1029A0008093F201CF91DF91FF91EF919F918F91F1
:1029B0003F912F910F900FBE0F901F901895DF93AE
:1029C000CF930F92CDB7DEB71092F20190914301F1
:1029D000809142019817C9F0809142018F5F8093E6
:1029E000420180914001813210F01092400120910B
:1029F0004001822F90E0FC01ED50FE4F80818983E1
:102A0000822F8F5F8093400101C0198289810F90CE
:102A1000CF91DF910895DF93CF9300D000D0CDB751
:102A2000DEB79B838A836C8319821092F20123C0E4
:102A3000809142018F5F809342018981282F30E08D
:102A40008A819B81DC01A20FB31F20914001822F5C
:102A500090E0FC01ED50FE4F80818C9389818F5F67
:102A60008983822F8F5F8093400180914001813262
:102A700010F010924001909143018091420198170B
:102A800021F099818C81981798F289810F900F908D
:102A90000F900F90CF91DF910895DF93CF93CDB733
:102AA000DEB79091430180914201292F281B822F8C
:102AB000CF91DF910895DF93CF93CDB7DEB7AAE230
:102AC000B0E0EAE2F0E080818F778C93ECE2F0E016
:102AD0008081809345011092400110924101109233
:102AE0004201109243011092F201AAE2B0E0EAE240
:102AF000F0E0808180688C93CF91DF910895DF931F
:102B0000CF93CDB7DEB71092270210922602109213
:102B100015021092140282E090E0909317028093C5
:102B20001602109219021092180210921B021092B3
:102B30001A0210921F0210921E0210921D02109291
:102B40001C0281E090E0909325028093240286E4A9
:102B500090E190932302809322021092210210921E
:102B60002002809176018160809376010E94061296
:102B70000E948C0E0E94C1150E9405180E94F71138
:102B8000F9CFDF93CF9300D0CDB7DEB740912602C7
:102B9000509127025A83498389819A818130910516
:102BA00009F470C049815A814130510568F089812A
:102BB0009A818230910509F436C149815A814330A6
:102BC000510509F4E5C11CC28091240290912502AF
:102BD000009709F415C289E690E00E94B71380912E
:102BE0004601882329F11092780110927701109202
:102BF00015021092140282E090E0909317028093E5
:102C000016028CE390E090931902809318021092C0
:102C10001B0210921A0281E090E090931D028093B3
:102C20001C0281E090E09093270280932602E8C185
:102C30008091A701882309F4E3C1109278011092D2
:102C40007701109215021092140283E090E09093A5
:102C50001702809316028CE390E090931902809300
:102C6000180210921B0210921A0281E090E09093D9
:102C70001D0280931C0281E090E0909327028093D4
:102C80002602BEC180E790E00E94B7138091240223
:102C900090912502009729F182E890E00E94B713F5
:102CA00081E090E090931B0280931A0210921D0223
:102CB00010921C0281E090E090931F0280931E020C
:102CC00086E490E1909321028093200210922302E7
:102CD0001092220283E090E09093270280932602D4
:102CE0008FC180914601882309F44CC080917701FF
:102CF0009091780153E0893E950708F443C084EA37
:102D000090E00E94B71381E090E0909325028093B9
:102D1000240281E090E090931B0280931A021092AB
:102D20001D0210921C0281E090E090931F0280939C
:102D30001E0282E090E09093170280931602809129
:102D40002002909121029C018091A5019091A60101
:102D5000820F931F90932102809320028091200282
:102D6000909121029C0186E490E1821B930B909349
:102D700023028093220283E090E0909327028093C5
:102D800026023EC18091A701882309F439C18091B0
:102D900077019091780123E0893E920708F430C1D1
:102DA00084EA90E00E94B71381E090E090932502BE
:102DB0008093240281E090E090931B0280931A029A
:102DC00010921D0210921C0281E090E090931F026D
:102DD00080931E0283E090E0909317028093160286
:102DE00080912002909121029C018091A5019091F7
:102DF000A601820F931F909321028093200280915D
:102E00002002909121029C0186E490E1821B930BA9
:102E1000909323028093220283E090E09093270214
:102E200080932602EDC085EC90E00E94B71380915C
:102E30002402909125020097F9F081E090E09093B0
:102E40001B0280931A0210921D0210921C02109213
:102E50001F0210921E0286E490E190932302809359
:102E60002202109221021092200283E090E09093BF
:102E7000270280932602C4C080914601882309F46A
:102E800041C081E090E0909325028093240281E08C
:102E900090E090931B0280931A0210921F021092EE
:102EA0001E0281E090E090931D0280931C0282E05C
:102EB00090E09093170280931602809120029091E7
:102EC00021029C018091A5019091A601A901481BB6
:102ED000590BCA0190932102809320028091200215
:102EE000909121029C0186E490E1821B930B9093C8
:102EF00023028093220283E090E090932702809344
:102F000026027EC08091A701882309F479C081E060
:102F100090E0909325028093240281E090E09093CA
:102F20001B0280931A0210921F0210921E0281E06F
:102F300090E090931D0280931C0283E090E09093B8
:102F400017028093160280912002909121029C0129
:102F50008091A5019091A601A901481B590BCA01B6
:102F6000909323028093220280912002909121026B
:102F70009C0186E490E1821B930B90932102809345
:102F8000200283E090E0909327028093260238C0CD
:102F90008091240290912502009791F186ED90E0B6
:102FA0000E94B71310921B0210921A0280911E0207
:102FB00090911F02009739F082E090E090932702F1
:102FC000809326021DC080911C0290911D020097E3
:102FD00039F081E090E0909327028093260210C0A0
:102FE00080911E0290911F02009751F480911C0263
:102FF00090911D02009721F4109227021092260250
:103000000F900F90CF91DF910895DF93CF93CDB7BD
:10301000DEB780911C0290911D02009751F18091C2
:10302000240290912502009721F180911A0290913B
:103030001B020097F1F48FED90E00E94B71380918E
:10304000180290911902482F809114029091150254
:10305000582F80912202909123029C01842F652F8A
:10306000A90120E00E94FF0710922502109224027D
:1030700055C080911E0290911F02009751F18091DE
:10308000240290912502009721F180911A029091DB
:103090001B020097F1F484EF90E00E94B713809137
:1030A000180290911902482F8091140290911502F4
:1030B000582F80912002909121029C01842F652F2E
:1030C000A90120E00E94FF0710922502109224021D
:1030D00025C080911A0290911B020097F9F080910F
:1030E0002402909125020097C9F088E091E00E94A7
:1030F000B7138091180290911902282F809116021F
:1031000090911702982F822F692F44EB50E020E016
:103110000E94CA0810922502109224020E94B90748
:10312000882351F084E191E00E94B71381E090E0A0
:103130009093250280932402CF91DF910895629F9E
:10314000D001739FF001829FE00DF11D649FE00D9F
:10315000F11D929FF00D839FF00D749FF00D659F00
:10316000F00D9927729FB00DE11DF91F639FB00DFF
:10317000E11DF91FBD01CF0111240895AA1BBB1B3E
:1031800051E107C0AA1FBB1FA617B70710F0A61B67
:10319000B70B881F991F5A95A9F780959095BC0188
:1031A000CD010895A1E21A2EAA1BBB1BFD010DC083
:1031B000AA1FBB1FEE1FFF1FA217B307E407F507E7
:1031C00020F0A21BB30BE40BF50B661F771F881FC3
:1031D000991F1A9469F760957095809590959B0159
:1031E000AC01BD01CF010895E82FF92F0190002017
:1031F000E9F7809590958E0F9F1F0895E62FF72F82
:103200002E2F3F2FE8944230C4F04532B4F44A30B8
:1032100029F497FB1EF4909581959F4F642F772793
:10322000ADDF805D8A330CF0895D8193862F972F07
:103230000097A1F716F45DE251931082822F932F2D
:1032400000C0A82FB92FE82FF92F672F719177238E
:10325000E1F7329704C07C916D9370836291AE1751
:0A326000BF07C8F30895F894FFCFEC
:10326A004A02CC0301000B1E0B49444C45200A00BC
:10327A00445249564520544F205441524745542000
:10328A000A00524F54415445204245434155534543
:10329A00204F46204D4F564520434F4D504C4554E4
:1032AA0045200A00524F5441544520424543415556
:1032BA005345204F462042554D5045522D505245B8
:1032CA005353200A00445249564520544F20535420
:1032DA00415254200A00524F54415445200A006476
:1032EA007269766520746F20746172676574206EE6
:1032FA006F770A00647269766520746F207374614F
:10330A007274206E6F770A00726F74617465206E32
:10331A006F770A004D6F76656D656E7420636F6D09
:08332A00706C6574650A000077
:00000001FF
